{
    "_format": "hh-sol-artifact-1",
    "contractName": "Web3RSVP",
    "sourceName": "contracts/Web3RSVP.sol",
    "abi": [
        {
            "anonymous": false,
            "inputs": [
                {
                    "indexed": false,
                    "internalType": "bytes32",
                    "name": "eventID",
                    "type": "bytes32"
                },
                {
                    "indexed": false,
                    "internalType": "address",
                    "name": "attendeeAddress",
                    "type": "address"
                }
            ],
            "name": "ConfirmedAttendee",
            "type": "event"
        },
        {
            "anonymous": false,
            "inputs": [
                {
                    "indexed": false,
                    "internalType": "bytes32",
                    "name": "eventID",
                    "type": "bytes32"
                }
            ],
            "name": "DepositPaidOut",
            "type": "event"
        },
        {
            "anonymous": false,
            "inputs": [
                {
                    "indexed": false,
                    "internalType": "bytes32",
                    "name": "eventID",
                    "type": "bytes32"
                },
                {
                    "indexed": false,
                    "internalType": "address",
                    "name": "creatorAddress",
                    "type": "address"
                },
                {
                    "indexed": false,
                    "internalType": "uint256",
                    "name": "eventTimestamp",
                    "type": "uint256"
                },
                {
                    "indexed": false,
                    "internalType": "uint256",
                    "name": "maxCapacity",
                    "type": "uint256"
                },
                {
                    "indexed": false,
                    "internalType": "uint256",
                    "name": "deposit",
                    "type": "uint256"
                },
                {
                    "indexed": false,
                    "internalType": "string",
                    "name": "eventDataCID",
                    "type": "string"
                }
            ],
            "name": "NewEventCreated",
            "type": "event"
        },
        {
            "anonymous": false,
            "inputs": [
                {
                    "indexed": false,
                    "internalType": "bytes32",
                    "name": "eventID",
                    "type": "bytes32"
                },
                {
                    "indexed": false,
                    "internalType": "address",
                    "name": "attendeeAddress",
                    "type": "address"
                }
            ],
            "name": "NewRSVP",
            "type": "event"
        },
        {
            "inputs": [
                {
                    "internalType": "bytes32",
                    "name": "eventId",
                    "type": "bytes32"
                }
            ],
            "name": "confirmAllAttendees",
            "outputs": [],
            "stateMutability": "nonpayable",
            "type": "function"
        },
        {
            "inputs": [
                {
                    "internalType": "bytes32",
                    "name": "eventId",
                    "type": "bytes32"
                },
                {
                    "internalType": "address",
                    "name": "attendee",
                    "type": "address"
                }
            ],
            "name": "confirmAttendee",
            "outputs": [],
            "stateMutability": "nonpayable",
            "type": "function"
        },
        {
            "inputs": [
                {
                    "internalType": "uint256",
                    "name": "eventTimestamp",
                    "type": "uint256"
                },
                {
                    "internalType": "uint256",
                    "name": "deposit",
                    "type": "uint256"
                },
                {
                    "internalType": "uint256",
                    "name": "maxCapacity",
                    "type": "uint256"
                },
                {
                    "internalType": "string",
                    "name": "eventDataCID",
                    "type": "string"
                }
            ],
            "name": "createNewEvent",
            "outputs": [],
            "stateMutability": "nonpayable",
            "type": "function"
        },
        {
            "inputs": [
                {
                    "internalType": "bytes32",
                    "name": "eventId",
                    "type": "bytes32"
                }
            ],
            "name": "createNewRSVP",
            "outputs": [],
            "stateMutability": "payable",
            "type": "function"
        },
        {
            "inputs": [
                {
                    "internalType": "bytes32",
                    "name": "",
                    "type": "bytes32"
                }
            ],
            "name": "idToEvent",
            "outputs": [
                {
                    "internalType": "bytes32",
                    "name": "eventID",
                    "type": "bytes32"
                },
                {
                    "internalType": "string",
                    "name": "eventDataCID",
                    "type": "string"
                },
                {
                    "internalType": "address",
                    "name": "eventOwner",
                    "type": "address"
                },
                {
                    "internalType": "uint256",
                    "name": "eventTimestamp",
                    "type": "uint256"
                },
                {
                    "internalType": "uint256",
                    "name": "deposit",
                    "type": "uint256"
                },
                {
                    "internalType": "uint256",
                    "name": "maxCapacity",
                    "type": "uint256"
                },
                {
                    "internalType": "bool",
                    "name": "paidOut",
                    "type": "bool"
                }
            ],
            "stateMutability": "view",
            "type": "function"
        },
        {
            "inputs": [
                {
                    "internalType": "bytes32",
                    "name": "eventId",
                    "type": "bytes32"
                }
            ],
            "name": "withdrawUnclaimedDeposits",
            "outputs": [],
            "stateMutability": "nonpayable",
            "type": "function"
        }
    ],
    "bytecode": "0x608060405234801561001057600080fd5b50612254806100206000396000f3fe6080604052600436106100545760003560e01c806292098c1461005957806317f0165a146100825780636dcdf2cd1461009e57806379747571146100c7578063909ef021146100f0578063acdbe01214610133575b600080fd5b34801561006557600080fd5b50610080600480360381019061007b919061169d565b61015c565b005b61009c60048036038101906100979190611638565b610378565b005b3480156100aa57600080fd5b506100c560048036038101906100c09190611661565b61060b565b005b3480156100d357600080fd5b506100ee60048036038101906100e99190611638565b610b7c565b005b3480156100fc57600080fd5b5061011760048036038101906101129190611638565b611034565b60405161012a9796959493929190611af9565b60405180910390f35b34801561013f57600080fd5b5061015a60048036038101906101559190611638565b61112b565b005b600033308787876040516020016101779594939291906119d7565b60405160208183030381529060405280519060200120905060608060405180610120016040528084815260200186868080601f016020809104026020016040519081016040528093929190818152602001838380828437600081840152601f19601f8201169050808301925050505050505081526020013373ffffffffffffffffffffffffffffffffffffffff16815260200189815260200188815260200187815260200183815260200182815260200160001515815250600080858152602001908152602001600020600082015181600001556020820151816001019080519060200190610267929190611482565b5060408201518160020160006101000a81548173ffffffffffffffffffffffffffffffffffffffff021916908373ffffffffffffffffffffffffffffffffffffffff160217905550606082015181600301556080820151816004015560a0820151816005015560c08201518160060190805190602001906102e9929190611508565b5060e0820151816007019080519060200190610306929190611508565b506101008201518160080160006101000a81548160ff0219169083151502179055509050507f2553138c3f9c9008f266dbdbe9fc64f5b71e098d06ef714a190a65a8b9fc6bf383338a898b8a8a6040516103669796959493929190611a8f565b60405180910390a15050505050505050565b60008060008381526020019081526020016000209050806004015434146103d4576040517f08c379a00000000000000000000000000000000000000000000000000000000081526004016103cb90611c4f565b60405180910390fd5b806003015442111561041b576040517f08c379a000000000000000000000000000000000000000000000000000000000815260040161041290611cef565b60405180910390fd5b8060050154816006018054905010610468576040517f08c379a000000000000000000000000000000000000000000000000000000000815260040161045f90611c0f565b60405180910390fd5b60005b81600601805490508160ff161015610568573373ffffffffffffffffffffffffffffffffffffffff16826006018260ff16815481106104d3577f4e487b7100000000000000000000000000000000000000000000000000000000600052603260045260246000fd5b9060005260206000200160009054906101000a900473ffffffffffffffffffffffffffffffffffffffff1673ffffffffffffffffffffffffffffffffffffffff161415610555576040517f08c379a000000000000000000000000000000000000000000000000000000000815260040161054c90611bef565b60405180910390fd5b808061056090611eed565b91505061046b565b5080600601339080600181540180825580915050600190039060005260206000200160009091909190916101000a81548173ffffffffffffffffffffffffffffffffffffffff021916908373ffffffffffffffffffffffffffffffffffffffff1602179055507fb79f4240bbdd272d98e02a5db7f0cf156e5fc000961c517670a26eeeec63ed9082336040516105ff929190611a66565b60405180910390a15050565b600080600084815260200190815260200160002090508060020160009054906101000a900473ffffffffffffffffffffffffffffffffffffffff1673ffffffffffffffffffffffffffffffffffffffff163373ffffffffffffffffffffffffffffffffffffffff16146106b3576040517f08c379a00000000000000000000000000000000000000000000000000000000081526004016106aa90611ccf565b60405180910390fd5b600080600090505b82600601805490508160ff1610156107ea578373ffffffffffffffffffffffffffffffffffffffff16836006018260ff1681548110610723577f4e487b7100000000000000000000000000000000000000000000000000000000600052603260045260246000fd5b9060005260206000200160009054906101000a900473ffffffffffffffffffffffffffffffffffffffff1673ffffffffffffffffffffffffffffffffffffffff1614156107d757826006018160ff16815481106107a9577f4e487b7100000000000000000000000000000000000000000000000000000000600052603260045260246000fd5b9060005260206000200160009054906101000a900473ffffffffffffffffffffffffffffffffffffffff1691505b80806107e290611eed565b9150506106bb565b508273ffffffffffffffffffffffffffffffffffffffff168173ffffffffffffffffffffffffffffffffffffffff1614610859576040517f08c379a000000000000000000000000000000000000000000000000000000000815260040161085090611c8f565b60405180910390fd5b60005b82600701805490508160ff161015610959578373ffffffffffffffffffffffffffffffffffffffff16836007018260ff16815481106108c4577f4e487b7100000000000000000000000000000000000000000000000000000000600052603260045260246000fd5b9060005260206000200160009054906101000a900473ffffffffffffffffffffffffffffffffffffffff1673ffffffffffffffffffffffffffffffffffffffff161415610946576040517f08c379a000000000000000000000000000000000000000000000000000000000815260040161093d90611b6f565b60405180910390fd5b808061095190611eed565b91505061085c565b50600015158260080160009054906101000a900460ff161515146109b2576040517f08c379a00000000000000000000000000000000000000000000000000000000081526004016109a990611b8f565b60405180910390fd5b81600701839080600181540180825580915050600190039060005260206000200160009091909190916101000a81548173ffffffffffffffffffffffffffffffffffffffff021916908373ffffffffffffffffffffffffffffffffffffffff16021790555060008373ffffffffffffffffffffffffffffffffffffffff168360040154604051610a4190611a36565b60006040518083038185875af1925050503d8060008114610a7e576040519150601f19603f3d011682016040523d82523d6000602084013e610a83565b606091505b5050905080610afc5782600701805480610ac6577f4e487b7100000000000000000000000000000000000000000000000000000000600052603160045260246000fd5b6001900381819060005260206000200160006101000a81549073ffffffffffffffffffffffffffffffffffffffff021916905590555b80610b3c576040517f08c379a0000000000000000000000000000000000000000000000000000000008152600401610b3390611c2f565b60405180910390fd5b7ff8d1583a733d83bdd3ef5464129d0a95a36d62b382d31c6d0467a61f4264381b8585604051610b6d929190611a66565b60405180910390a15050505050565b60008060008381526020019081526020016000206040518061012001604052908160008201548152602001600182018054610bb690611ebb565b80601f0160208091040260200160405190810160405280929190818152602001828054610be290611ebb565b8015610c2f5780601f10610c0457610100808354040283529160200191610c2f565b820191906000526020600020905b815481529060010190602001808311610c1257829003601f168201915b505050505081526020016002820160009054906101000a900473ffffffffffffffffffffffffffffffffffffffff1673ffffffffffffffffffffffffffffffffffffffff1673ffffffffffffffffffffffffffffffffffffffff16815260200160038201548152602001600482015481526020016005820154815260200160068201805480602002602001604051908101604052809291908181526020018280548015610d3157602002820191906000526020600020905b8160009054906101000a900473ffffffffffffffffffffffffffffffffffffffff1673ffffffffffffffffffffffffffffffffffffffff1681526020019060010190808311610ce7575b5050505050815260200160078201805480602002602001604051908101604052809291908181526020018280548015610dbf57602002820191906000526020600020905b8160009054906101000a900473ffffffffffffffffffffffffffffffffffffffff1673ffffffffffffffffffffffffffffffffffffffff1681526020019060010190808311610d75575b505050505081526020016008820160009054906101000a900460ff161515151581525050905080610100015115610e2b576040517f08c379a0000000000000000000000000000000000000000000000000000000008152600401610e2290611c6f565b60405180910390fd5b62093a808160600151610e3e9190611d36565b421015610e80576040517f08c379a0000000000000000000000000000000000000000000000000000000008152600401610e7790611bcf565b60405180910390fd5b806040015173ffffffffffffffffffffffffffffffffffffffff163373ffffffffffffffffffffffffffffffffffffffff1614610ef2576040517f08c379a0000000000000000000000000000000000000000000000000000000008152600401610ee990611caf565b60405180910390fd5b60008160e00151518260c0015151610f0a9190611de6565b90506000826080015182610f1e9190611d8c565b905060018361010001901515908115158152505060003373ffffffffffffffffffffffffffffffffffffffff1682604051610f5890611a36565b60006040518083038185875af1925050503d8060008114610f95576040519150601f19603f3d011682016040523d82523d6000602084013e610f9a565b606091505b5050905080610fb6576000846101000190151590811515815250505b80610ff6576040517f08c379a0000000000000000000000000000000000000000000000000000000008152600401610fed90611baf565b60405180910390fd5b7fa9e6d10f5e9a9e34f93636947fd1803c2643c46add5dd0dc8fd89ec435452106856040516110259190611a4b565b60405180910390a15050505050565b600060205280600052604060002060009150905080600001549080600101805461105d90611ebb565b80601f016020809104026020016040519081016040528092919081815260200182805461108990611ebb565b80156110d65780601f106110ab576101008083540402835291602001916110d6565b820191906000526020600020905b8154815290600101906020018083116110b957829003601f168201915b5050505050908060020160009054906101000a900473ffffffffffffffffffffffffffffffffffffffff16908060030154908060040154908060050154908060080160009054906101000a900460ff16905087565b6000806000838152602001908152602001600020604051806101200160405290816000820154815260200160018201805461116590611ebb565b80601f016020809104026020016040519081016040528092919081815260200182805461119190611ebb565b80156111de5780601f106111b3576101008083540402835291602001916111de565b820191906000526020600020905b8154815290600101906020018083116111c157829003601f168201915b505050505081526020016002820160009054906101000a900473ffffffffffffffffffffffffffffffffffffffff1673ffffffffffffffffffffffffffffffffffffffff1673ffffffffffffffffffffffffffffffffffffffff168152602001600382015481526020016004820154815260200160058201548152602001600682018054806020026020016040519081016040528092919081815260200182805480156112e057602002820191906000526020600020905b8160009054906101000a900473ffffffffffffffffffffffffffffffffffffffff1673ffffffffffffffffffffffffffffffffffffffff1681526020019060010190808311611296575b505050505081526020016007820180548060200260200160405190810160405280929190818152602001828054801561136e57602002820191906000526020600020905b8160009054906101000a900473ffffffffffffffffffffffffffffffffffffffff1673ffffffffffffffffffffffffffffffffffffffff1681526020019060010190808311611324575b505050505081526020016008820160009054906101000a900460ff1615151515815250509050806040015173ffffffffffffffffffffffffffffffffffffffff163373ffffffffffffffffffffffffffffffffffffffff1614611406576040517f08c379a00000000000000000000000000000000000000000000000000000000081526004016113fd90611ccf565b60405180910390fd5b60005b8160c00151518160ff16101561147d5761146a838360c001518360ff168151811061145d577f4e487b7100000000000000000000000000000000000000000000000000000000600052603260045260246000fd5b602002602001015161060b565b808061147590611eed565b915050611409565b505050565b82805461148e90611ebb565b90600052602060002090601f0160209004810192826114b057600085556114f7565b82601f106114c957805160ff19168380011785556114f7565b828001600101855582156114f7579182015b828111156114f65782518255916020019190600101906114db565b5b5090506115049190611592565b5090565b828054828255906000526020600020908101928215611581579160200282015b828111156115805782518260006101000a81548173ffffffffffffffffffffffffffffffffffffffff021916908373ffffffffffffffffffffffffffffffffffffffff16021790555091602001919060010190611528565b5b50905061158e9190611592565b5090565b5b808211156115ab576000816000905550600101611593565b5090565b6000813590506115be816121d9565b92915050565b6000813590506115d3816121f0565b92915050565b60008083601f8401126115eb57600080fd5b8235905067ffffffffffffffff81111561160457600080fd5b60208301915083600182028301111561161c57600080fd5b9250929050565b60008135905061163281612207565b92915050565b60006020828403121561164a57600080fd5b6000611658848285016115c4565b91505092915050565b6000806040838503121561167457600080fd5b6000611682858286016115c4565b9250506020611693858286016115af565b9150509250929050565b6000806000806000608086880312156116b557600080fd5b60006116c388828901611623565b95505060206116d488828901611623565b94505060406116e588828901611623565b935050606086013567ffffffffffffffff81111561170257600080fd5b61170e888289016115d9565b92509250509295509295909350565b61172681611e1a565b82525050565b61173d61173882611e1a565b611f17565b82525050565b61174c81611e2c565b82525050565b61175b81611e38565b82525050565b600061176d8385611d25565b935061177a838584611e79565b61178383611fa3565b840190509392505050565b600061179982611d0f565b6117a38185611d25565b93506117b3818560208601611e88565b6117bc81611fa3565b840191505092915050565b60006117d4600f83611d25565b91506117df82611fc1565b602082019050919050565b60006117f7601083611d25565b915061180282611fea565b602082019050919050565b600061181a601483611d25565b915061182582612013565b602082019050919050565b600061183d600983611d25565b91506118488261203c565b602082019050919050565b6000611860601183611d25565b915061186b82612065565b602082019050919050565b6000611883601f83611d25565b915061188e8261208e565b602082019050919050565b60006118a6601483611d25565b91506118b1826120b7565b602082019050919050565b60006118c9600a83611d25565b91506118d4826120e0565b602082019050919050565b60006118ec600c83611d25565b91506118f782612109565b602082019050919050565b600061190f601283611d25565b915061191a82612132565b602082019050919050565b6000611932600083611d1a565b915061193d8261215b565b600082019050919050565b6000611955601383611d25565b91506119608261215e565b602082019050919050565b6000611978600e83611d25565b915061198382612187565b602082019050919050565b600061199b600f83611d25565b91506119a6826121b0565b602082019050919050565b6119ba81611e62565b82525050565b6119d16119cc82611e62565b611f3b565b82525050565b60006119e3828861172c565b6014820191506119f3828761172c565b601482019150611a0382866119c0565b602082019150611a1382856119c0565b602082019150611a2382846119c0565b6020820191508190509695505050505050565b6000611a4182611925565b9150819050919050565b6000602082019050611a606000830184611752565b92915050565b6000604082019050611a7b6000830185611752565b611a88602083018461171d565b9392505050565b600060c082019050611aa4600083018a611752565b611ab1602083018961171d565b611abe60408301886119b1565b611acb60608301876119b1565b611ad860808301866119b1565b81810360a0830152611aeb818486611761565b905098975050505050505050565b600060e082019050611b0e600083018a611752565b8181036020830152611b20818961178e565b9050611b2f604083018861171d565b611b3c60608301876119b1565b611b4960808301866119b1565b611b5660a08301856119b1565b611b6360c0830184611743565b98975050505050505050565b60006020820190508181036000830152611b88816117c7565b9050919050565b60006020820190508181036000830152611ba8816117ea565b9050919050565b60006020820190508181036000830152611bc88161180d565b9050919050565b60006020820190508181036000830152611be881611830565b9050919050565b60006020820190508181036000830152611c0881611853565b9050919050565b60006020820190508181036000830152611c2881611876565b9050919050565b60006020820190508181036000830152611c4881611899565b9050919050565b60006020820190508181036000830152611c68816118bc565b9050919050565b60006020820190508181036000830152611c88816118df565b9050919050565b60006020820190508181036000830152611ca881611902565b9050919050565b60006020820190508181036000830152611cc881611948565b9050919050565b60006020820190508181036000830152611ce88161196b565b9050919050565b60006020820190508181036000830152611d088161198e565b9050919050565b600081519050919050565b600081905092915050565b600082825260208201905092915050565b6000611d4182611e62565b9150611d4c83611e62565b9250827fffffffffffffffffffffffffffffffffffffffffffffffffffffffffffffffff03821115611d8157611d80611f45565b5b828201905092915050565b6000611d9782611e62565b9150611da283611e62565b9250817fffffffffffffffffffffffffffffffffffffffffffffffffffffffffffffffff0483118215151615611ddb57611dda611f45565b5b828202905092915050565b6000611df182611e62565b9150611dfc83611e62565b925082821015611e0f57611e0e611f45565b5b828203905092915050565b6000611e2582611e42565b9050919050565b60008115159050919050565b6000819050919050565b600073ffffffffffffffffffffffffffffffffffffffff82169050919050565b6000819050919050565b600060ff82169050919050565b82818337600083830152505050565b60005b83811015611ea6578082015181840152602081019050611e8b565b83811115611eb5576000848401525b50505050565b60006002820490506001821680611ed357607f821691505b60208210811415611ee757611ee6611f74565b5b50919050565b6000611ef882611e6c565b915060ff821415611f0c57611f0b611f45565b5b600182019050919050565b6000611f2282611f29565b9050919050565b6000611f3482611fb4565b9050919050565b6000819050919050565b7f4e487b7100000000000000000000000000000000000000000000000000000000600052601160045260246000fd5b7f4e487b7100000000000000000000000000000000000000000000000000000000600052602260045260246000fd5b6000601f19601f8301169050919050565b60008160601b9050919050565b7f414c524541445920434c41494d45440000000000000000000000000000000000600082015250565b7f414c52454144592050414944204f555400000000000000000000000000000000600082015250565b7f4661696c656420746f2073656e64204574686572000000000000000000000000600082015250565b7f544f4f204552414c590000000000000000000000000000000000000000000000600082015250565b7f414c524541445920434f4e4649524d4544000000000000000000000000000000600082015250565b7f54686973206576656e7420686173207265616368656420636170616369747900600082015250565b7f4661696c656420746f20736e6564204574686572000000000000000000000000600082015250565b7f4e4f5420454e4f55474800000000000000000000000000000000000000000000600082015250565b7f414c524541445920504149440000000000000000000000000000000000000000600082015250565b7f4e4f205253565020544f20434f4e4649524d0000000000000000000000000000600082015250565b50565b7f4d555354204245204556454e54204f574e455200000000000000000000000000600082015250565b7f4e4f5420415554484f52495a4544000000000000000000000000000000000000600082015250565b7f414c52454144592048415050454e440000000000000000000000000000000000600082015250565b6121e281611e1a565b81146121ed57600080fd5b50565b6121f981611e38565b811461220457600080fd5b50565b61221081611e62565b811461221b57600080fd5b5056fea2646970667358221220a42ee4d8019d5604272e0199b179801ebc7c9f40ecf967b3cad645f52efa9e4864736f6c63430008040033",
    "linkReferences": {},
    "deployedLinkReferences": {}
}